:100000000C9434000C9440000C943E000C943E0080
:100010000C943E000C943E000C943E000C943E0068
:100020000C943E000C943E000C943E000C943E0058
:100030000C943E000C943E000C943E000C943E0048
:100040000C943E000C943E000C943E000C943E0038
:100050000C943E000C943E000C943E000C943E0028
:100060000C943E000C943E0011241FBECFEFD8E04C
:10007000DEBFCDBF0E9452000C945F000C940000C4
:100080001F920F920FB60F9211248F939F9395B1E9
:1000900084E0892785B99F918F910F900FBE0F90B3
:1000A0001F90189584B1826084B98AB18B7F8AB918
:1000B00082E08093690081E08DBB7894FFCFF89453
:0200C000FFCF70
:00000001FF
