:100000000C9434000C943E000C943E000C943E0082
:100010000C943E000C943E000C943E000C943E0068
:100020000C943E000C943E000C943E000C943E0058
:100030000C943E000C943E000C943E000C943E0048
:100040000C943E000C943E000C943E000C943E0038
:100050000C943E000C943E000C943E000C943E0028
:100060000C943E000C943E0011241FBECFEFD8E04C
:10007000DEBFCDBF0E9440000C9458000C940000DD
:1000800084B1826084B9A0E8B0E01C92E1E8F0E0BD
:1000900088E080838C9180648C9384E89EE19093C7
:1000A0008900809388008081887F85608083FFCF6E
:0400B000F894FFCFF2
:00000001FF
