:100000000C9434000C9455010C9480010C94510014
:100010000C9451000C94A9010C9451000C945100C3
:100020000C9451000C9451000C9451000C94030159
:100030000C9451000C9451000C9451000C945100FC
:100040000C94DA000C9451000C942C010C94510087
:100050000C9451000C9451000C9451000C945100DC
:100060000C9451000C94510011241FBECFEFD8E026
:10007000DEBFCDBF11E0A0E0B1E0E6E3F5E002C0F5
:1000800005900D92A433B107D9F721E0A4E3B1E0C4
:1000900001C01D92A034B207E1F70E94D4010C9474
:1000A00099020C940000CF93DF93CDB7DEB7619730
:1000B0000FB6F894DEBF0FBECDBF91E1E0E0F1E0F6
:1000C000DE01119601900D929A95E1F7982F929585
:1000D0009F70E1E0F0E0EC0FFD1FE90FF11D2081C2
:1000E0002A3039F49091C00095FFFCCF9DE09093A9
:1000F000C6009091C00095FFFCCF2093C6008F7082
:10010000E1E0F0E0EC0FFD1FE80FF11D90819A3067
:1001100039F48091C00085FFFCCF8DE08093C6004C
:100120008091C00085FFFCCF9093C60061960FB60A
:10013000F894DEBF0FBECDBFDF91CF910895FC01D3
:1001400010C02A3039F48091C00085FFFCCF8DE0CB
:100150008093C6009091C00095FFFCCF2093C6000D
:10016000319620812111EDCF0895EAE7F0E08081FA
:100170008064808380917A0084FFFCCF80917C0032
:1001800085FF03C08091790004C080917800909130
:100190007900EAE7F0E09081906190830E9453003B
:1001A00080E391E00E949F00089590933D01809329
:1001B0003C0108951F920F920FB60F9211242F93B6
:1001C0003F934F935F936F937F938F939F93AF93DF
:1001D000BF93EF93FF93E0913E01F0913F01309781
:1001E00009F00995FF91EF91BF91AF919F918F9188
:1001F0007F916F915F914F913F912F910F900FBE23
:100200000F901F9018951F920F920FB60F92112406
:100210002F933F934F935F936F937F938F939F930E
:10022000AF93BF93EF93FF93E0913C01F0913D01B9
:10023000309709F00995FF91EF91BF91AF919F9190
:100240008F917F916F915F914F913F912F910F907F
:100250000FBE0F901F9018951F920F920FB60F921E
:1002600011242F933F934F935F936F937F938F93BB
:100270009F93AF93BF93EF93FF93E0913A01F09177
:100280003B01309709F00995FF91EF91BF91AF9134
:100290009F918F917F916F915F914F913F912F919E
:1002A0000F900FBE0F901F9018951F920F920FB6D0
:1002B0000F9211242F933F934F935F936F937F93EC
:1002C0008F939F93AF93BF93EF93FF93E091380188
:1002D000F0913901309709F0099581E08CBBFF91CD
:1002E000EF91BF91AF919F918F917F916F915F91AE
:1002F0004F913F912F910F900FBE0F901F90189527
:100300001F920F920FB60F9211242F933F934F938A
:100310005F936F937F938F939F93AF93BF93EF936D
:10032000FF93E0913601F0913701309709F009957C
:10033000FF91EF91BF91AF919F918F917F916F91BD
:100340005F914F913F912F910F900FBE0F901F9093
:1003500018951F920F920FB60F9211242F933F936F
:100360004F935F936F937F938F939F93AF93BF93BD
:10037000EF93FF93E0913401F0913501309709F04C
:10038000099584E08BBBFF91EF91BF91AF919F9155
:100390008F917F916F915F914F913F912F910F902E
:1003A0000FBE0F901F90189582E08093C0001092AE
:1003B000C50080E18093C40088E18093C10086E09D
:1003C0008093C200AAE7B0E08C9180688C93ECE740
:1003D000F0E080818F73806480838081806280837D
:1003E0008081807F80838C9187608C93E1E8F0E04E
:1003F0008081887F80831082109280008081886055
:1004000080838081887F80838081846080838081F5
:100410008160808380818770833081F028F481300F
:10042000B1F0823041F004C0843059F0853061F081
:1004300020E030E00EC028E030E00BC020E430E0E7
:1004400008C020E031E005C020E034E002C021E037
:1004500030E021153105E1F140E050E060E074E268
:1004600084EF90E00E947702BA01A901440F551F62
:10047000661F771F440F551F661F771FDB01CA01D8
:10048000880F991FAA1FBB1F880F991FAA1FBB1F88
:100490008A019B01080F191F2A1F3B1FC901B801C0
:1004A00028EE33E040E050E00E947702DA01C90113
:1004B0000197A109B109009711E0A107B10520F04A
:1004C0008FEF9FEFA0E0B0E09093890080938800C9
:1004D00085EB90E00E94D500EFE6F0E0808182603D
:1004E0008083789481E191E00E949F00FFCFA1E298
:1004F0001A2EAA1BBB1BFD010DC0AA1FBB1FEE1F9E
:10050000FF1FA217B307E407F50720F0A21BB30BE8
:10051000E40BF50B661F771F881F991F1A9469F764
:1005200060957095809590959B01AC01BD01CF01C0
:060530000895F894FFCFCE
:100536003031323334353637383941424344454613
:100546000041444320382D62697420706F74656ED3
:1005560074696F6D65746572206D6F6E69746F7204
:040566000D0A00007A
:00000001FF
