:100000000C9434000C94A3000C9446000C9446000D
:100010000C9446000C9446000C9446000C94460048
:100020000C9446000C9446000C9446000C9451002D
:100030000C9446000C9446000C9446000C94460028
:100040000C9446000C9446000C947A000C944600E4
:100050000C9446000C9446000C9446000C94460008
:100060000C9446000C94460011241FBECFEFD8E03C
:10007000DEBFCDBF21E0A0E0B1E001C01D92A630FF
:10008000B207E1F70E94CC000C94E9000C94000048
:1000900083B1816083B90895909301018093000139
:1000A00008951F920F920FB60F9211242F933F9332
:1000B0004F935F936F937F938F939F93AF93BF9370
:1000C000EF93FF93E0910401F0910501309709F05F
:1000D0000995FF91EF91BF91AF919F918F917F9182
:1000E0006F915F914F913F912F910F900FBE0F90A5
:1000F0001F9018951F920F920FB60F9211242F93F5
:100100003F934F935F936F937F938F939F93AF939F
:10011000BF93EF93FF93E0910201F09103013097B9
:1001200009F00995FF91EF91BF91AF919F918F9148
:100130007F916F915F914F913F912F910F900FBEE3
:100140000F901F9018951F920F920FB60F921124C7
:100150002F933F934F935F936F937F938F939F93CF
:10016000AF93BF93EF93FF93E0910001F0910101F2
:10017000309709F00995FF91EF91BF91AF919F9151
:100180008F917F916F915F914F913F912F910F9040
:100190000FBE0F901F90189584B1816084B985B10E
:1001A0008E7F85B98AB18B7F8AB98BB184608BB918
:1001B000E9E6F0E080818C7F8083808182608083AB
:1001C00088E490E00E944C008DB381608DBB7894F0
:0601D000FFCFF894FFCF01
:00000001FF
