:100000000C9434000C943E000C943E000C943E0082
:100010000C943E000C943E000C943E000C943E0068
:100020000C943E000C943E000C943E000C943E0058
:100030000C943E000C943E000C943E000C943E0048
:100040000C943E000C943E000C943E000C943E0038
:100050000C943E000C943E000C943E000C943E0028
:100060000C943E000C943E0011241FBECFEFD8E04C
:10007000DEBFCDBF0E9440000C9455000C940000E0
:1000800084B1816084B983B1816083B980E090E0FC
:10009000DC0103C00196A11DB11D803221EA920747
:0E00A00027E0A207B105B4F3EECFF894FFCF2E
:00000001FF
