:100000000C9434000C9411010C9446000C9446009E
:100010000C9446000C9446000C9446000C94460048
:100020000C9446000C9446000C9446000C94BF00BF
:100030000C9446000C9446000C9446000C94460028
:100040000C9496000C9446000C94E8000C94460026
:100050000C9446000C9446000C9446000C94460008
:100060000C9446000C94460011241FBECFEFD8E03C
:10007000DEBFCDBF21E0A0E0B1E001C01D92AB30FA
:10008000B207E1F70E9446010C941A030C94000099
:10009000809100018F5F8093000180910001853085
:1000A00098F1109200018091010181112EC0809180
:1000B00002018F5F8093020180910201843630F04B
:1000C00084E68093020181E0809301018091020126
:1000D000853608F084E62091860030918700829F63
:1000E000B001839F700D112490E080E00E948C028B
:1000F00020E030E048EC52E40E94EB010E945D02F7
:100100007093890060938800089580910201815066
:1001100080930201809102018111D8CF10920101D8
:10012000D5CF90930A018093090108951F920F92F1
:100130000FB60F9211242F933F934F935F936F93BA
:100140007F938F939F93AF93BF93EF93FF93E09130
:100150000901F0910A01309709F00995FF91EF919B
:10016000BF91AF919F918F917F916F915F914F91CF
:100170003F912F910F900FBE0F901F9018951F92D7
:100180000F920FB60F9211242F933F934F935F93CB
:100190006F937F938F939F93AF93BF93EF93FF934F
:1001A000E0910701F0910801309709F00995FF915E
:1001B000EF91BF91AF919F918F917F916F915F91DF
:1001C0004F913F912F910F900FBE0F901F90189558
:1001D0001F920F920FB60F9211242F933F934F93BC
:1001E0005F936F937F938F939F93AF93BF93EF939F
:1001F000FF93E0910501F0910601309709F0099510
:10020000FF91EF91BF91AF919F918F917F916F91EE
:100210005F914F913F912F910F900FBE0F901F90C4
:1002200018951F920F920FB60F9211242F933F93A0
:100230004F935F936F937F938F939F93AF93BF93EE
:10024000EF93FF93E0910301F0910401309709F0DF
:100250000995FF91EF91BF91AF919F918F917F9100
:100260006F915F914F913F912F910F900FBE0F9023
:100270001F90189514BC15BC85B5836085BDEEE64E
:10028000F0E080818160808316BC089584B1826033
:1002900084B9E1E8F0E01082A0E8B0E01C928C9113
:1002A00082608C938081886080838081806180837C
:1002B0008081887F8083808182608083808181606B
:1002C000808380818770833009F44BC040F4813093
:1002D00009F44AC0823041F528E030E007C084309C
:1002E00009F445C0853001F520E034E0A8EEB3E024
:1002F0000E94DC019B01AC0160E074E284EF90E0BD
:100300000E94BA01DA01C9010197A109B109009758
:1003100021E0A207B10520F08FEF9FEFA0E0B0E051
:100320009093870080938600E0E8F0E08081806809
:10033000808380818F7B808380918600909187006D
:1003400010928900109288000E943A0188E490E09F
:100350000E949100EEE6F0E08081816080837894D5
:10036000FFCF20E430E0C2CF21E030E0BFCF20E07B
:1003700031E0BCCFA1E21A2EAA1BBB1BFD010DC0B0
:10038000AA1FBB1FEE1FFF1FA217B307E407F50745
:1003900020F0A21BB30BE40BF50B661F771F881F21
:1003A000991F1A9469F760957095809590959B01B7
:1003B000AC01BD01CF010895A29FB001B39FC00160
:1003C000A39F700D811D1124911DB29F700D811D81
:1003D0001124911D08950E94FF010C94E0020E94D7
:1003E000D90258F00E94D20240F029F45F3F29F070
:1003F0000C94C90251110C9414030C94CF020E9466
:10040000F10268F39923B1F3552391F3951B550B32
:10041000BB27AA2762177307840738F09F5F5F4FD7
:10042000220F331F441FAA1FA9F335D00E2E3AF016
:10043000E0E832D091505040E695001CCAF72BD02E
:10044000FE2F29D0660F771F881FBB1F261737077F
:100450004807AB07B0E809F0BB0B802DBF01FF27B1
:1004600093585F4F3AF09E3F510578F00C94C902C3
:100470000C9414035F3FE4F3983ED4F3869577958C
:100480006795B795F7959F5FC9F7880F911D96956A
:10049000879597F90895E1E0660F771F881FBB1FC6
:1004A000621773078407BA0720F0621B730B840B73
:1004B000BA0BEE1F88F7E09508950E94F90288F0C4
:1004C0009F5798F0B92F9927B751B0F0E1F0660F18
:1004D000771F881F991F1AF0BA95C9F714C0B13059
:1004E00091F00E941303B1E008950C941303672F59
:1004F000782F8827B85F39F0B93FCCF38695779588
:100500006795B395D9F73EF4909580957095619570
:100510007F4F8F4F9F4F0895E89409C097FB3EF49B
:1005200090958095709561957F4F8F4F9F4F992340
:10053000A9F0F92F96E9BB279395F69587957795BE
:100540006795B795F111F8CFFAF4BB0F11F460FF7E
:100550001BC06F5F7F4F8F4F9F4F16C0882311F0D6
:1005600096E911C0772321F09EE8872F762F05C0EA
:10057000662371F096E8862F70E060E02AF09A9585
:10058000660F771F881FDAF7880F9695879597F97A
:10059000089597F99F6780E870E060E008959FEF05
:1005A00080EC089500240A9416161706180609060A
:1005B000089500240A9412161306140605060895D9
:1005C000092E0394000C11F4882352F0BB0F40F461
:1005D000BF2B11F460FF04C06F5F7F4F8F4F9F4FA1
:1005E000089557FD9058440F551F59F05F3F71F023
:1005F0004795880F97FB991F61F09F3F79F087958A
:100600000895121613061406551FF2CF4695F1DF12
:1006100008C0161617061806991FF1CF86957105A2
:10062000610508940895E894BB2766277727CB01D6
:0806300097F90895F894FFCF3B
:00000001FF
