:100000000C9434000C94D8000C9401010C94510011
:100010000C9451000C9451000C9451000C9451001C
:100020000C9451000C9451000C9451000C948600D7
:100030000C9451000C9451000C9451000C945100FC
:100040000C945D000C9451000C94AF000C94510082
:100050000C9451000C9451000C9451000C945100DC
:100060000C9451000C94510011241FBECFEFD8E026
:10007000DEBFCDBF11E0A0E0B1E0E8EEF3E002C0EA
:1000800005900D92AC33B107D9F721E0ACE3B1E0B4
:1000900001C01D92A734B207E1F70E9498010C94A9
:1000A000F2010C9400009093400180933F01089569
:1000B00090933E0180933D0108951F920F920FB6D9
:1000C0000F9211242F933F934F935F936F937F93DE
:1000D0008F939F93AF93BF93EF93FF93E09145016D
:1000E000F0914601309709F00995FF91EF91BF918A
:1000F000AF919F918F917F916F915F914F913F91C0
:100100002F910F900FBE0F901F9018951F920F9276
:100110000FB60F9211242F933F934F935F936F93DA
:100120007F938F939F93AF93BF93EF93FF93E09150
:100130004301F0914401309709F00995FF91EF9147
:10014000BF91AF919F918F917F916F915F914F91EF
:100150003F912F910F900FBE0F901F9018951F92F7
:100160000F920FB60F9211242F933F934F935F93EB
:100170006F937F938F939F93AF93BF93EF93FF936F
:10018000E0914101F0914201309709F00995FF910A
:10019000EF91BF91AF919F918F917F916F915F91FF
:1001A0004F913F912F910F900FBE0F901F90189578
:1001B0001F920F920FB60F9211242F933F934F93DC
:1001C0005F936F937F938F939F93AF93BF93EF93BF
:1001D000FF93E0913F01F0914001309709F00995BC
:1001E000FF91EF91BF91AF919F918F917F916F910F
:1001F0005F914F913F912F910F900FBE0F901F90E5
:1002000018951F920F920FB60F9211242F933F93C0
:100210004F935F936F937F938F939F93AF93BF930E
:10022000EF93FF93E0913D01F0913E01309709F08B
:100230000995FF91EF91BF91AF919F918F917F9120
:100240006F915F914F913F912F910F900FBE0F9043
:100250001F90189530E020E023C0F901E050FF4FD7
:10026000408150E0FA01EA5DFE4FE081E254FF0B6D
:10027000EE0FFF1FEC5FFE4F0190F081E02D6081DB
:10028000405F5E4FDA014C9181E090E002C0880F40
:10029000991F4A95E2F78095862380832F5F3F4F11
:1002A0002430310564F580913C0190E0022E02C0BB
:1002B000959587950A94E2F780FFCFCFF901E0503A
:1002C000FF4F808190E0FC01EA5DFE4FE081E25447
:1002D000FF0BEE0FFF1FEC5FFE4F0190F081E02D52
:1002E0004081805F9E4FDC015C9181E090E002C024
:1002F000880F991F5A95E2F7842B8083CFCF0895FA
:1003000080913C018F5F8F7080933C010E942A0195
:100310008CB381608CBB089580913C0181508F70BB
:1003200080933C010E942A018CB382608CBB0895AB
:1003300030E020E022C0F901E050FF4F808190E0E2
:10034000FC01EA5DFE4FE081E254FF0BEE0FFF1F60
:10035000E65FFE4F0190F081E02D4081805F9E4F6F
:10036000DC015C9181E090E002C0880F991F5A95F2
:10037000E2F7842B80832F5F3F4F24303105DCF27E
:1003800084B1886084B985B1877F85B98AB18B7F54
:100390008AB98BB184608BB98AB1877F8AB98BB1F6
:1003A00088608BB9C9E6D0E088818C7F888388819A
:1003B0008260888380E891E00E9453008DB3816061
:1003C0008DBB8881837F88838881886088838CE85F
:1003D00091E00E9458008DB382608DBB0E942A017B
:0803E0007894FFCFF894FFCFE1
:1003E80000010204250028002B00240027002A0011
:1003F80000010203040506070001020304050001C9
:100408000203040506074242424242424242434333
:0C041800434343434444444444444444AC
:00000001FF
